:020000040800F2
:10000000F8060020890100082F1600088B1400084C
:100010002D1600088F020008BB1900080000000020
:10002000000000000000000000000000551800085B
:10003000910200080000000031160008571800085F
:10004000A3010008A3010008A30100087517000818
:10005000A3010008A301000893020008A102000800
:10006000A3010008A3010008A7020008A3010008DB
:10007000A3010008A3010008A3010008A3010008D0
:10008000A3010008A3010008A3010008A3010008C0
:10009000A3010008A3010008A3010008A3010008B0
:1000A000A3010008D9180008A3010008A301000853
:1000B000A3010008A3010008A3010008A301000890
:1000C000A3010008A3010008A3010008A301000880
:1000D000A3010008A3010008A3010008A301000870
:1000E00099020008A3010008A301000800F002F82B
:1000F00000F03AF80AA090E8000C82448344AAF188
:100100000107DA4501D100F02FF8AFF2090EBAE885
:100110000F0013F0010F18BFFB1A43F0010318473B
:10012000C81C0000E81C0000103A24BF78C878C141
:10013000FAD8520724BF30C830C144BF04680C60ED
:10014000704700000023002400250026103A28BF35
:1001500078C1FBD8520728BF30C148BF0B60704739
:100160001FB51FBD10B510BD00F058F81146FFF7C0
:10017000F7FF01F0ADFC00F076F803B4FFF7F2FFF3
:1001800003BC00F07DF8000009488047094800479B
:10019000FEE7FEE7FEE7FEE7FEE7FEE7FEE7FEE737
:1001A000FEE7FEE704480549054A064B7047000094
:1001B000D7180008ED000008F8000020F80600201D
:1001C000F8020020F80200204FF0000200B51346AC
:1001D00094469646203922BFA0E80C50A0E80C5067
:1001E000B1F12001BFF4F7AF090728BFA0E80C5018
:1001F00048BF0CC05DF804EB890028BF40F8042B11
:1002000008BF704748BF20F8022B11F0804F18BF7D
:1002100000F8012B7047704770477047754600F033
:100220002BF8AE4605006946534620F00700854688
:1002300018B020B5FFF7B6FFBDE820404FF000062C
:100240004FF000074FF000084FF0000B21F00701BE
:10025000AC46ACE8C009ACE8C009ACE8C009ACE801
:10026000C0098D46704710B50446AFF300802046A4
:10027000BDE81040FFF781BF00487047980000209C
:1002800001491820ABBEFEE7260002007047FEE7DA
:100290007047012000F07CB84FF4005000F078B8AF
:1002A000022000F075B8102000F072B82DE9F0417E
:1002B000074601F0C7FB00F0CBF9334C00260125BF
:1002C000A06978B1022F04D0102F05D0012F06D0DD
:1002D00052E0C4E906654FE001F08EFB4CE001F00E
:1002E000CFFB49E0E06910B3022F04D0102F18D0E3
:1002F000012F19D040E0254800F07EFFA662E6619C
:10030000206918B1C4E90356656235E0606948B3F5
:100310001D491E480022091D1438666100F00EFEBA
:100320002AE001F07BFB27E001F0BCFB24E0022F78
:1003300004D0102F08D0012F15D01DE0A56113485F
:10034000656100F005FF17E025611048A56100F028
:10035000FFFEE06830B90C48001DC11E02780A702B
:100360004078487008E0E06818B1606A50B1002039
:100370006062206A00B12662257000F00BF9A0606F
:10038000BDE8F0810120F3E70000002050000020CC
:10039000044910B50A68024202D00860FFF786FFE0
:1003A00010BD0000140401402DE9F84FDFF8B891AA
:1003B0000024A9F1040B23460F2709F1040AABF12D
:1003C000040EC9E00125A5402A40AA427DD1674E0E
:1003D000D1F804C0ACEB0608B44532D014DCBCF153
:1003E000030F3AD009DCBCF1000F2AD0BCF1010F99
:1003F0001CD0BCF1020F31D11DE0BCF1110F17D0A0
:10040000BCF1120F2AD119E0B8F5881F19D006DC0B
:10041000B8F5803F15D0B8F5801F1FD111E0B8F5B1
:10042000001F0ED0B8F5041F18D10AE0CB6815E004
:10043000CB681B1D12E0CB6808330FE0CB680C3390
:100440000CE08B682BB1012B4FF0080303D0456102
:1004500004E0042302E0056100E00023FF2A01D844
:10046000064601E000F104064FEA840501D9A5F132
:100470002005D6F8008007FA05FC28EA0C0803FAE4
:1004800005F548EA0508C6F800804D68ED0062D51C
:10049000374DAE6946F00106AE61AD6924F0030642
:1004A00005F001050095334D06EB050CDCF808500E
:1004B000A607360F07FA06F825EA0805DFF8B88020
:1004C000404503D14FF0000817E044E0DFF8AC806E
:1004D000404502D14FF001080FE0DFF8A48040450D
:1004E00002D14FF0020808E0DFF89880404502D1C1
:1004F0004FF0030801E04FF0040808FA06F848EA54
:100500000508CCF808804D68D9F80060ED024D462A
:1005100001D5164300E096432E604D68DAF800607E
:10052000AD02554601D5164300E096432E604D6856
:10053000DBF80060AD035D4601D5164300E096434D
:100540002E604D68DEF80060ED03754601D5164358
:1005500000E096432E60641C0D682A46E5407FF457
:1005600031AFBDE8F88F0000080401400000111011
:10057000001002400000014000080140000C014052
:1005800000100140001401400AB1016170470904E4
:10059000FBE7000001488068704700002C00002045
:1005A0000248816802781144816070472C00002065
:1005B000074810B5016841F010010160032000F008
:1005C00085F8002000F006F800F024F8002010BDA7
:1005D0000020024070B50D4D04464FF47A71287822
:1005E000B1FBF0F00A490968B1FBF0F000F019FD29
:1005F00048B9102C07D200222146501E00F046F8C0
:1006000000206C6070BD012070BD00002C00002037
:10061000380000200C4808B5816941F00101816172
:10062000816901F001010091C16941F08051C1610E
:10063000C06900F0805000900448416821F0E061FA
:1006400041F00071416008BD00100240000001400F
:1006500000280DDB00F01F020121914040098000BD
:1006600000F1E020C0F88011BFF34F8FBFF36F8F10
:100670007047002809DB00F01F020121914040096A
:10068000800000F1E020C0F800117047F0B40E4B7C
:100690001B680C46C3F30223C3F10705042D00D9E0
:1006A0000425191D072901D2002300E0DB1E0126C5
:1006B00006FA05F1491E214099409E40761E1640DB
:1006C0003143F0BC01F087B90CED00E0064900F0C1
:1006D000070208684FF6FF03184040EA0220034A69
:1006E00010430860704700000CED00E00000FA05C0
:1006F000014901200862704700000E4210B5014612
:100700000020234C012922D0022939D010291DD1E3
:1007100061682268D20119D51E48C1F38342C9031A
:10072000805C0AD561681B4AC1F34041921E515C4E
:10073000194AB2FBF1F1484301E0184948436168A6
:10074000490203D440000321B0FBF1F010BD226A3E
:10075000C2F30121012903D1920701D5C80310BDBD
:10076000022905D1626A920702D549F6404010BDC0
:100770000329FCD121688903F9D54FF2244010BD2B
:1007800000F01AF96168C1F38131491C4900DBE7C7
:1007900000100240BE1D000800127A0000093D0052
:1007A0002DE9F84305460078354CC00754D0E06980
:1007B0000026C00008D4E06940F08050E061E069A4
:1007C000012600F0805000902E480168C90512D41F
:1007D0000168804641F480710160FFF7DBFE074647
:1007E00005E000BFFFF7D6FEC01B642823D8D8F869
:1007F0000000C005F6D5206A10F4407021D0A98809
:1008000001F4407181421CD0206A1F49012220F46A
:1008100040700A6000220A602062C00711D0FFF712
:10082000B9FE074641F2883808E000BFFFF7B2FE84
:10083000C11B414502D90320BDE8F883206A800727
:10084000F4D5206A696820F44070084320621EB124
:10085000E06920F08050E0612878800705D5606865
:10086000A96820F44040084360602878C00605D598
:100870006068E96820F48000084360600020DBE7DE
:100880000010024000700040400442422DE9F04751
:100890000F46050061D0434E306800F00700B842B3
:1008A00009D2306820F0070038433060306800F02B
:1008B0000700B84251D128683B4C810712D5400748
:1008C00003D5606840F4E06060602878000703D5D5
:1008D000606840F4605060606068A96820F0F000D3
:1008E000084360602878C00728D06868012810D0C5
:1008F0002168022810D0890700292EDA616821F0CA
:10090000030101436160FFF745FE804641F28839EB
:100910000DE021688903EFE78901EDE7FFF73AFE73
:10092000A0EB0801494502D90320BDE8F0876068C3
:10093000696800F00C00B0EB810FEFD1306800F077
:100940000700B8420BD9306820F007003843306008
:10095000306800F00700B84201D00120E5E72878B0
:10096000400705D56068E96820F4E06008436060EE
:100970002878000706D56068296920F4605040EAAD
:10098000C100606000F028F86168084AC1F30311F3
:10099000515CC8400649086006480068FFF71AFE27
:1009A0000020C2E70020024000100240CE1D0008D7
:1009B00038000020300000200448054900684968DC
:1009C000044AC1F3C221515CC8407047380000207E
:1009D00000100240DE1D00080E4A51680E4801F06A
:1009E0000C03042B11D0082B0FD10C48C1F3834307
:1009F000C903C05C0AD55168084AC1F34041921E40
:100A0000515C054A5043B0FBF1F07047044948433C
:100A1000704700000010024000127A00AC1D000870
:100A200000093D002DE9F84F040070D02078C04D3A
:100A3000C00749D06868C0F38100012807D0686802
:100A4000C0F38100022809D16868C00306D5286870
:100A5000800339D560680028E7D035E06068B0F5DC
:100A6000803F0BD010B1B0F5A02F11D0286820F432
:100A700080302860286820F4802002E0286840F454
:100A800080302860606890B1FFF784FD06460AE078
:100A9000286840F480202860F0E700BFFFF77AFD67
:100AA000801B642873D828688003F7D50CE0FFF713
:100AB00071FD064605E000BFFFF76CFD801B642852
:100AC000F0D828688003F7D420789A4E80074FF03A
:100AD00001094FF0000839D5686810F00C0F07D0F5
:100AE0006868C0F38100022809D16868C00306D491
:100AF0002868800714D52069012808D110E02069F2
:100B0000B0B1C6F80090FFF745FD074605E00AE1E1
:100B1000FFF740FDC01B0228C4D828688007F7D51E
:100B20002868616920F0F80040EAC10028600DE003
:100B3000C6F80080FFF72EFD074604E0FFF72AFD08
:100B4000C01B022823D828688007F7D42078000724
:100B50002CD57948A169D9B1C0F80090FFF71AFDEA
:100B6000074604E0FFF716FDC01B02280FD8686A8D
:100B70008007F7D571484FF4FA510068B0FBF1F0E7
:100B8000009000BF0098411E0091FAD20EE080E074
:100B9000C0F80080FFF7FEFC074604E0FFF7FAFC10
:100BA000C01B022875D8686A8007F7D420784007F0
:100BB00060D5E8690027C00008D4E86940F080509B
:100BC000E861E869012700F0805000905C48016806
:100BD000C90513D40168834641F480710160FFF7B1
:100BE000D9FC824606E000BFFFF7D4FCA0EB0A0068
:100BF00064284ED8DBF80000C005F5D5E068012870
:100C00000AD008B1052813D0286A20F00100286214
:100C1000286A20F0040002E0286A40F001002862FF
:100C2000E06841F2883B98B1FFF7B4FC82460BE0E4
:100C3000286A40F004002862EEE700BFFFF7AAFC34
:100C4000A0EB0A0159455AD8286A8007F6D50CE06E
:100C5000FFF7A0FC824605E0FFF79CFCA0EB0A0131
:100C600059454CD8286A8007F6D41FB1E86920F0AE
:100C70008050E861E06988B36968C1F381010229A5
:100C800044D00228C6F8608004D0FFF783FC0446F5
:100C900038E034E0FFF77EFC074604E0FFF77AFC1B
:100CA000C01B02282BD828688001F7D4206AB0F531
:100CB000803F05D16868A16820F40030084368606F
:100CC000D4E908010843696821F474110843686095
:100CD000C6F86090FFF75EFC044606E025E000BF22
:100CE000FFF758FC001B022809D828688001F7D5B7
:100CF0001BE000BFFFF74EFC001B022802D90320B7
:100D0000BDE8F88F28688001F4D40EE00128F7D000
:100D10006868226A00F48031914204D1616A00F46B
:100D20007010884201D00120EAE70020E8E70000C7
:100D3000001002400000424280044242380000207D
:100D4000007000407047704710B5044600680168A5
:100D5000C90717D04168C90714D04068400720462A
:100D600007D5FFF7F0FF21686FF00400486004200A
:100D700002E0FFF7E7FF012060742068416821F07E
:100D80000101416010BD2DE9F04791460C465FEA34
:100D900000084AD084B3D8F800004068400744D423
:100DA000404600F0F4FC4FF461620546B0FBF2F1FE
:100DB000B0FBF2F302FB13503C23B0FBF3F0B5FBA6
:100DC000F2F6607002FB1650B0FBF3F203FB120068
:100DD000A070182931D31820B1FBF0F7B1FBF0F265
:100DE00000FB12102070404600F0CAFC411C04D0E9
:100DF000A84202D9461B02E017E04FF0FF36A7EBEE
:100E0000071000EB4000C0EB001005EBC0152946B1
:100E1000404600F00BFD40B9701C01D0711900E094
:100E20003146404600F0EEFC10B10120BDE8F087ED
:100E30003946404600F011FC00E02170B9F1000F86
:100E40000BD0207800F0FEFB2070607800F0FAFBF9
:100E50006070A07800F0F6FBA0700020E6E70000CC
:100E600070B5040003D0607C002610B105E00120BD
:100E700070BD2674204600F03DF8022060742046C4
:100E800000F0B2F8042550BB204600F03DFC30BB1A
:100E90002068416821F007014160A06820B1144832
:100EA000016821F0010101601148001F0168A2687A
:100EB00021F46071114301606068411C04D101207C
:100EC000FFF71CFC58B1401E2268C0F3034191603B
:100ED000216880B2C860204600F030FC08B165741B
:100EE000C5E7E67301206073A0736074002070BDD5
:100EF000306C004008B500680D49884217D1FFF7F3
:100F0000F7FB0C48C16941F00061C161C0690A4941
:100F100000F00060009001200860002211460320CC
:100F2000FFF7B4FBBDE808400320FFF7A2BB08BDF4
:100F300000280040001002403C0442422DE9F041EC
:100F40000D46040024D01DB3207C012823D04FF08F
:100F5000010884F81080022060742878EAB100F05B
:100F600068FB4FF4616100FB01F6687800F061FBFB
:100F7000C0EB001006EB8006A87800F05AFB35188D
:100F80002946204600F052FC0026042710BB0FE043
:100F90000120BDE8F0810220FBE74FF46161484386
:100FA0006978C1EB011100EB8100A9784518E7E7EA
:100FB0002068416821F005014160204600F0E0FB17
:100FC000411C0AD0A84208D206490144204600F03C
:100FD00019FC10B167742674DAE784F8118026745E
:100FE0000020D6E78051010070B504000AD02068C7
:100FF000416821F008014160FFF7CCFA05464FF443
:101000007A7608E0012070BDFFF7C4FA401BB042B9
:1010100001D9032070BD206840680007F4D5002086
:1010200070BD10B5401EB0F1807F01D3012010BD0E
:101030004FF0E02460610F21601700F0CCFC00202D
:10104000A06107202061002010BD7047704700009C
:1010500070B590F83C20012A26D0012480F83C404D
:10106000022280F83D2003685A689D6822F07006CD
:101070000A6832435A600D4B02689A4208D0B2F1B6
:10108000804F05D00A4B9A4202D00A4B9A4204D1B3
:10109000496825F080031943916080F83D400021A4
:1010A00080F83C10084670BD022070BD002C014045
:1010B000000400400008004010B5040003D094F87C
:1010C0003D0010B107E0012010BD002084F83C0075
:1010D000204600F01FF8022084F83D00211D206802
:1010E00000F000FC012084F8460084F83E0084F8FB
:1010F0003F0084F8400084F8410084F8420084F8FE
:10110000430084F8440084F8450084F83D00002042
:1011100010BD000008B500680B49884212D10B4889
:10112000816941F4006181618069002200F40060FE
:10113000009011461920FFF7A9FABDE808401920D0
:10114000FFF797BA08BD0000002C014000100240D4
:1011500090F83D10012901D001207047022180F84C
:101160003D1000680B49884208D0B0F1804F05D08F
:101170000949884202D00949884204D1816801F0B6
:101180000701062903D0016841F001010160002038
:1011900070470000002C014000040040000800409F
:1011A00090F83D10012901D001207047022180F8FC
:1011B0003D100168CA6842F00102CA6000680B492C
:1011C000884208D0B0F1804F05D00949884202D04A
:1011D0000849884204D1816801F00701062903D03B
:1011E000016841F00101016000207047002C0140BE
:1011F000000400400008004001680A6A41F211132F
:101200001A4207D10A6A9B101A4203D10A6822F0D7
:1012100001020A60012180F83D100020704770B57E
:10122000044690F83C000025012817D0012684F8D8
:101230003C60022084F83D002068826822F077023A
:1012400022F47F4282600868502838D00DDC2028C4
:101250004FD005DC90B3102811D14AE0022070BDB8
:10126000302846D040280AD13BE060282FD0702893
:101270000DD0B0F5805F03D0B0F5005F12D001252E
:1012800084F83D60002084F83C00284670BDCB689F
:10129000D1E90121206800F05BFB2068816841F002
:1012A000770109E0CB68D1E90121206800F050FB0B
:1012B0002068816841F480418160E1E719E0CA68F3
:1012C0004968206800F056FB5021206806E0CA6893
:1012D0004968206800F05FFB6021206800F042FB55
:1012E000CEE7CA684968206800F044FB40212068C6
:1012F000F4E7226801461046F0E7704770B50446EF
:10130000006801694FF00005C943890715D4C16819
:10131000C943890711D4E91E0161012020772068A3
:1013200080698007204602D0FFF7E7FF04E000F065
:1013300098F8204600F096F8257720680169C9439F
:10134000490717D4C168C943490713D46FF0040192
:101350000161022020772068806910F4407F2046D8
:1013600002D0FFF7CAFF04E000F07BF8204600F04F
:1013700079F8257720680169C943090716D4C1683F
:10138000C943090712D46FF00801016104202077D6
:101390002068C0698007204602D0FFF7AEFF04E056
:1013A00000F05FF8204600F05DF8257720680169BD
:1013B000C943C90617D4C168C943C90613D46FF01D
:1013C00010010161082020772068C06910F4407F77
:1013D000204602D0FFF791FF04E000F042F82046DB
:1013E00000F040F8257720680169C943C90708D192
:1013F000C168C943C90704D1891E0161204600F0B4
:1014000033F820680169C943090609D4C168C94392
:10141000090605D46FF0800101612046FFF715FE33
:1014200020680169C943490609D4C168C94349060E
:1014300005D46FF040010161204600F025F82068D6
:101440000169C94389060BD4C168C943890607D419
:101450006FF0200101612046BDE87040FFF7F6BD46
:1014600070BD70477047000000680549884204D18C
:101470000448816A11B10021816270470121FBE7B4
:10148000002C0140000000207047FEE72DE9F043EA
:1014900085B0002445480094019402940394816926
:1014A00041F010018161816901F0100104918169AD
:1014B00041F020018161816901F02001049181697D
:1014C00041F004018161816901F0040104918169A5
:1014D00041F0080181618069DFF8D48000F00800E4
:1014E0004FF478760490002231464046FFF74CF8DE
:1014F000DFF8C090002260214846FFF745F82E4FE4
:101500001220CDE90007694602944046FEF74CFFE1
:1015100002250C20CDE90005694640460395FEF7FB
:1015200043FF00960126694640460196CDE90245F3
:10153000FEF73AFF0096CDE9017469464846FEF78A
:1015400033FF280300901D48CDE901046946484651
:10155000FEF72AFF6020CDE9000669464846CDE93E
:101560000245FEF721FF002211460620FFF78EF804
:101570000620FFF77EF8002211460720FFF786F8C5
:101580000720FFF776F8002211460A20FFF77EF8C1
:101590000A20FFF76EF8002211462820FFF776F8A0
:1015A0002820FFF766F805B0BDE8F0830010024080
:1015B00000080140000C0140000011100000211043
:1015C00010B586B000241848009401940294039446
:1015D000049414490594016041F6FF01C0E9011427
:1015E00042F21071C0E9031444618461FFF764FDA5
:1015F00008B172B6FEE74FF48050009069460A4881
:10160000FFF70DFE08B172B6FEE7049404A9064880
:101610000594FFF71DFD002801D072B6FEE706B065
:1016200010BD0000002C014050000020FEE7FEE746
:101630007047010901EB810100F00F0000EB410050
:10164000C0B27047002102E00A38C0B2491C0A2823
:10165000FAD2090740EA116070472DE9F0410446CB
:101660000025C07B627BA37B42E0012A16D0032ABF
:1016700014D0052A12D0072A10D0082A0ED00A2A20
:101680000CD00C2A0AD0042A10D0062A0ED0092A1F
:101690000CD00B2A0AD0022A0DD028E01F2B0CD325
:1016A0000C2A05D101221346401C20E01E2B04D336
:1016B0000123521C1BE01C2B02D203F1010316E094
:1016C00011D183B29E0710D16426B3FBF6F706FB57
:1016D000173636B94FF4C876B3FBF6F706FB173367
:1016E0001BB91D2303E01D2B01D1032201236D1C17
:1016F0008D42BAD3D1B2E0736173DAB2A27300F053
:1017000056F82073BDE8F08170B50446FEF742FF3D
:1017100005464FF47A7606E0FEF73CFF401BB042E8
:1017200001D9032070BD206840688006F4D5206888
:10173000416841F010014160002070BD70B5044661
:101740000068416821F010014160FEF723FF054663
:101750004FF47A7607E000BFFEF71CFF401BB04253
:1017600001D9032070BD206840688006F4D50020B0
:1017700070BD00000148FFF7E7BA00003C00002000
:101780000168086A496A89B241EA00407047006806
:1017900081698AB2C1698BB2816989B28A4203D0F8
:1017A000C06961F31F40704743EA02407047F0B5DB
:1017B0006424C1EBC1030927A500072603EB01132D
:1017C0000329B3FBF7F100F5FA60114401440AD292
:1017D000401EB0FBF4F201EB9001B0FBF5F0891A6A
:1017E0000844001D08E0B0FBF4F201EB9001B0FBEF
:1017F000F5F0891A0844801CB0FBF6F106FB1100D5
:10180000C0B2F0BD70B50D4606460024FFF77CFF60
:1018100048B93168280C08623168A8B2486230467D
:10182000FFF78CFF00B10124204670BD70B50D4656
:1018300006460024FFF768FF48B93168280C886124
:101840003168A8B2C8613046FFF778FF00B10124C3
:10185000204670BD7047FEF7A3BE70B594B0282136
:101860006846FEF7B1FC14210AA8FEF7ADFC00247F
:1018700001250F940A2000901020CDE90450129405
:101880004FF46010109411940226CDE90840CDE980
:1018900006566846FFF7C6F808B172B6FEE70F2095
:1018A000CDE90A064FF48060CDE90C4002210AA878
:1018B0000E94FEF7EBFF08B172B6FEE74FF400702E
:1018C000CDE90F500FA8FEF76BFF002801D072B6CC
:1018D000FEE714B070BD70470148FFF70FBD000070
:1018E00050000020F0B50268164B174C174D4FF012
:1018F0008047984205D0B84203D0A04201D0A84208
:1019000003D122F070064A683243984205D0B842AB
:1019100003D0A04201D0A84203D122F44074CA6887
:1019200022434C6922F08002224302608A68C2622C
:101930000A688262984201D109690163012141610B
:10194000F0BD0000002C01400004004000080040F1
:1019500010B5846842EA032224F47F440A432243F8
:10196000826010BD826822F070020A4342F00701D3
:101970008160704710B5036A046A24F001040462B0
:10198000846924F0F00444EA021423F00A020A43B2
:101990008461026210BD10B5036A046A24F0100469
:1019A0000462846923F0A00324F4704444EA023200
:1019B00043EA01118261016210BDFEE7002809DBE4
:1019C00000F01F02012191404009800000F1E02059
:1019D000C0F8801270470907090E002804DB00F1E7
:1019E000E02080F80014704700F00F0000F1E020C4
:1019F00080F8141D704700000748006910B10648C0
:101A0000401C01E00448001D017811B1491E01701D
:101A100070471721FBE7000000000020084800691C
:101A200010B10748401C01E00548001D10F8011FD7
:101A300011B1491E017070473B210170FFF7DCBFF7
:101A400000000020012809D0022803D0102803D06C
:101A500000207047072070470A2070470620704713
:101A600010B500225FF00A03B0FBF3F403FB14048B
:101A7000B0FBF3F08C54521C022AF5DB10BD0000C1
:101A80000748006910B10648401C01E00448001DE9
:101A90000178172902D0491C017070470021FBE72B
:101AA000000000200948006910B10848401C01E00E
:101AB0000648001D10F8011F3B2902D0491C017087
:101AC000704700210170FFF7DBBF0000000000201D
:101AD00008B5FEF76DFDFFF7C0FEFFF7D7FCFFF777
:101AE0006FFD2948274901604FF0FF3141604FF4F5
:101AF00080718160FFF7B4F908B172B6FEE7224841
:101B00001430FFF74DFB20481430FFF775FB00F051
:101B100087F801221D491C48FFF710FA00F064F80D
:101B20001A4DEE1EB5F1040400F032F8606A78B187
:101B3000206A68B928783178884209D16878717844
:101B4000884205D1012020620F481430FFF700FBC6
:101B5000206940B1B4F80100ADF80000E0788DF8DC
:101B60000200009802E0606928B1606800F074F833
:101B700000F064F8D8E7002204490348FFF703F9AE
:101B8000F3E70000002800403C0000200400002093
:101B900010B5134C2078002821D0FEF7FBFCA1687B
:101BA000401AB0F5967F1AD90E4802210160102123
:101BB0000160012101600720FFF700FF0A20FFF705
:101BC000FDFE0620FFF7FAFE0720FEF752FD0A2071
:101BD000FEF74FFD0620FEF74CFD0020207010BDE3
:101BE000000000201404014010B5012240210A48E1
:101BF000FEF7CAFC094C012280212046FEF7C4FCF6
:101C0000012240212046FEF7BFFC20460122BDE80C
:101C100010402021FEF7B8BC000C01400008014034
:101C200005490C20FF220870002048708870C91EEA
:101C30000A704A7088707047040000200448416AA6
:101C4000044809B1002200E001224021FEF79CBCBB
:101C500000000020000C01407CB505461CA01D4C76
:101C6000006800901AA000680190216AA0690843EA
:101C700001D0A06A18B1E8B26946FFF7F1FED4E9D5
:101C80000701084301D0A06A20B1C5F3072001A9CC
:101C9000FFF7E6FE00239DF801000122194600F03F
:101CA0001BF801239DF800001A46194600F014F8AD
:101CB0009DF8050000230122022100F00DF89DF897
:101CC000040000230122032100F006F87CBD00007F
:101CD0000A0A0000000000202DE9F05FDFF8B0B034
:101CE00016468A4604461D46012220215846FEF724
:101CF0004BFC092C01D9FF2401E02648045D0DB1FD
:101D000004F07F04244D00274FF400794FF48078CD
:101D100026B104F080026006040E02E004F0010225
:101D2000640849462846FEF72FFC00224146284613
:101D3000FEF72AFC012241462846FEF725FC7F1CBF
:101D4000082FE5DB1349091F002711F80A4026B1C7
:101D500004F080026006040E02E004F00102640850
:101D600049462846FEF710FC002241462846FEF769
:101D70000BFC012241462846FEF706FC7F1C082F7B
:101D8000E5DB5846BDE8F05F00222021FEF7FCBBF2
:101D9000000C0140A01D000800080140F1F2F4F819
:101DA000C0F9A4B0999282F8809001020203040560
:101DB000060708090A0B0C0D0E0F10100102020392
:101DC0000405060708090A0B0C0D0E0F1010000081
:101DD00000000000000001020304060708090000DB
:101DE0000000010203040000081E0008000000209B
:101DF0003C00000028010008441E00083C000020B0
:101E0000BC060000440100080000000000000000C3
:101E100000000000000000000000000000000000C2
:101E200000000000000000000000000000000000B2
:101E30000000000001000000100000000000000091
:041E40000024F40086
:04000005080000ED02
:00000001FF
