:020000040800F2
:100000007007002091010008BF140008B712000813
:10001000BD140008190600082D1700080000000094
:10002000000000000000000000000000C5140008EF
:100030001B06000800000000C1140008C7140008D7
:10004000AB010008AB010008AB010008AB010008E0
:10005000AB010008C31400081D06000823060008B1
:10006000AB010008AB01000829060008AB0100083D
:10007000AB010008AB010008AB010008AB010008B0
:10008000AB010008AB010008AB010008AB010008A0
:10009000AB010008AB010008AB010008AB01000890
:1000A000AB010008AB010008AB010008AB01000880
:1000B000AB010008AB010008AB010008AB01000870
:1000C000AB010008AB010008AB010008AB01000860
:1000D000AB010008AB010008AB010008AB01000850
:1000E000AB010008AB010008AB01000800F002F80A
:1000F00000F03FF80AA090E8000C82448344AAF183
:100100000107DA4501D100F034F8AFF2090EBAE880
:100110000F0013F0010F18BFFB1A43F0010318473B
:10012000A0180000C0180000103A24BF78C878C199
:10013000FAD8520724BF30C830C144BF04680C60ED
:10014000704700000023002400250026103A28BF35
:1001500078C1FBD8520728BF30C148BF0B60704739
:10016000642900F07780002070471FB51FBD10B5CF
:1001700010BD00F00EFA1146FFF7F7FF01F084FB07
:1001800000F02CFA03B4FFF7F2FF03BC00F034FADE
:100190000948804709480047FEE7FEE7FEE7FEE71B
:1001A000FEE7FEE7FEE7FEE7FEE7FEE70448054957
:1001B000054A064B7047000023150008ED000008B3
:1001C00070010020700700207003002070030020E1
:1001D0000FB41CB50C0007AA009001D02044401EAB
:1001E000074B7B4469460190069800F0B2F9002C59
:1001F00003D06946002000F0BFF91CBC5DF814FB79
:100200009D03000070B5044685690068C10601D5EC
:10021000302600E02026C00707D070BDD4E90121B8
:1002200030469047206A401C20626D1EF6D570BD96
:1002300070B5044685690078C00707D170BDD4E960
:10024000012120209047206A401C20626D1EF6D5B7
:1002500070BD00002DE9F0410646002410687529A4
:10026000314616A510D0AFF30080002802DA4042D4
:1002700013A507E031688A0701D512A502E04907F6
:1002800004D511A5012401E0AFF3008000210A226A
:1002900006F1240709E0B0FBF2FCB0FBF2F302FB2D
:1002A0001C00303078541846491C0028F3D12346EE
:1002B0002A463046BDE8F04100F0EDB800000000ED
:1002C0002D0000002B000000200000002DE9F05F51
:1002D000894604464FF0000ADFF824B1FB44C0F819
:1002E00020A02046E168884700287DD0252806D038
:1002F000D4E901219047206A401C2062F1E70025E3
:100300005F462046E16888472028064607DB312EF5
:1003100005D2B81910F8200C08B10543F1E7A80779
:1003200001D525F00405C4F81CA00027C4F818A0C6
:100330002A2E09D0304601F09FFA38B304EB870823
:10034000303EC8F8186019E059F8041B204604EB49
:1003500087029161E1688847012F064618D1E0695C
:10036000002820DA25F020051DE0D8F8180000EB61
:10037000800006EB40003038C8F818002046E168DD
:100380008847064601F078FA0028EED1012F0AD0FE
:100390002E2E08D12046E16888477F1C0646022F92
:1003A00045F02005C4DBA069002803DA404245F08F
:1003B0000105A061E80701D025F01005A6B1A6F15E
:1003C0004100192802D8203645F400654A463146D6
:1003D000204625604D46FFF7C3FE60B1012807D0D7
:1003E000ED1D25F0070000E007E000F1080978E7BF
:1003F00005F1040975E730467AE7206ABDE8F09F09
:10040000CC16000010B5431C02E010F8011B71B1BE
:100410008107FAD14FF0013202C88C1A8C4314EADA
:10042000C211F9D0C01A0A0603D0C01E10BDC01AEE
:1004300010BD0A0401D0801E10BD0902FCD0401E70
:1004400010BD4FF0000200B5134694469646203981
:1004500022BFA0E80C50A0E80C50B1F12001BFF47D
:10046000F7AF090728BFA0E80C5048BF0CC05DF8E3
:1004700004EB890028BF40F8042B08BF704748BF31
:1004800020F8022B11F0804F18BF00F8012B7047A5
:100490007047704770472DE9F0470D4699469246E0
:1004A000044600F124080168880604D5E06921F0BB
:1004B0001001216000E00120A84201DD471B00E09F
:1004C0000027A1697A1902EB0900081AA0612078B7
:1004D000C00602D42046FFF795FE002608E0D4E9C6
:1004E00001211AF806009047206A401C761C206201
:1004F0004E45F4DB2078C0060AD52046FFF782FE81
:1005000006E0D4E9012130209047206A401C206297
:10051000381EA7F10107F4DC07E0D4E9012118F83F
:1005200005009047206A401C2062281EA5F10105A5
:10053000F3DC2046FFF77CFE2078000602D502207F
:10054000BDE8F0870120FBE701694A1C02610878D9
:10055000704700B58FB0CDE9013100210591054903
:100560007944CDE9031011466846FFF7AFFE0FB09E
:1005700000BD0000E5FFFFFF0A6802F8010B0A60FA
:100580007047D1E900239A4202D2531C0B601070CD
:100590007047754600F02CF8AE4605006946534694
:1005A00020F00700854618B020B5FFF7FFFDBDE835
:1005B00020404FF000064FF000074FF000084FF0CA
:1005C000000B21F00701AC46ACE8C009ACE8C0095B
:1005D000ACE8C009ACE8C0098D46704710B50446C8
:1005E000AFF300802046BDE81040FFF7CBBD000010
:1005F000004870471001002001491820ABBEFEE7FB
:10060000260002007047000000222021014800F06F
:1006100082B90000000C0140FEE77047012000F0A5
:1006200071B8022000F06EB8102000F06BB8000026
:1006300001222021014800F06EB90000000C0140A9
:1006400072B6FEE770B5044600F06AF90546601C14
:1006500002D004480078044400F062F9401BA04234
:10066000FAD370BD280000202DE9F041044600F0C7
:1006700057F92146002501271F4C0646012927D09E
:100680001E4802290AD0102906D100F037F9B8B166
:10069000666127612561A561BDE8F081022100F056
:1006A0002DF910B16560E560F6E7A068301A96286C
:1006B000F2DDA6606760E560BDE8F04101F082B858
:1006C0006069301A9628E7DD01F0BEF8A761E3E71C
:1006D00001210B4800F012F910B1E5616562DBE71A
:1006E000206A301A9628D7DD2662E7616562BDE888
:1006F000F04101F075B80000000000200008014042
:10070000000C0140044910B50A68024202D008609A
:10071000FFF7AAFF10BD0000140401402DE9F84FB7
:10072000DFF8B8910024A9F1040B23460F2709F143
:10073000040AABF1040EC9E00125A5402A40AA42F3
:100740007DD1674ED1F804C0ACEB0608B44532D079
:1007500014DCBCF1030F3AD009DCBCF1000F2AD045
:10076000BCF1010F1CD0BCF1020F31D11DE0BCF176
:10077000110F17D0BCF1120F2AD119E0B8F5881F5C
:1007800019D006DCB8F5803F15D0B8F5801F1FD111
:1007900011E0B8F5001F0ED0B8F5041F18D10AE01B
:1007A000CB6815E0CB681B1D12E0CB6808330FE067
:1007B000CB680C330CE08B682BB1012B4FF0080396
:1007C00003D0456104E0042302E0056100E000235A
:1007D000FF2A01D8064601E000F104064FEA84052D
:1007E00001D9A5F12005D6F8008007FA05FC28EA12
:1007F0000C0803FA05F548EA0508C6F800804D68BC
:10080000ED0062D5374DAE6946F00106AE61AD69C7
:1008100024F0030605F001050095334D06EB050CA9
:10082000DCF80850A607360F07FA06F825EA08058F
:10083000DFF8B880404503D14FF0000817E044E0EE
:10084000DFF8AC80404502D14FF001080FE0DFF83F
:10085000A480404502D14FF0020808E0DFF89880FC
:10086000404502D14FF0030801E04FF0040808FAB8
:1008700006F848EA0508CCF808804D68D9F8006009
:10088000ED024D4601D5164300E096432E604D68BB
:10089000DAF80060AD02554601D5164300E09643F4
:1008A0002E604D68DBF80060AD035D4601D5164350
:1008B00000E096432E604D68DEF80060ED0375465B
:1008C00001D5164300E096432E60641C0D682A464D
:1008D000E5407FF431AFBDE8F88F00000804014027
:1008E000000011100010024000000140000801400B
:1008F000000C0140001001400014014080680840D5
:1009000000D001207047C26821EA02030A4043EA8E
:100910000241016170470AB1016170470904FBE7B8
:100920000148806870470000280000200248816864
:10093000027811448160704728000020074810B5F4
:10094000016841F010010160032000F07DF80020F3
:1009500000F006F800F024F8002010BD002002404E
:1009600070B50D4D04464FF47A712878B1FBF0F064
:100970000A490968B1FBF0F000F0E4FA48B9102C1C
:1009800007D200222146501E00F03EF800206C6085
:1009900070BD012070BD0000280000203400002040
:1009A000104808B5816941F001018161816901F058
:1009B00001010091C16941F08051C161C06900220B
:1009C00000F0805000901146052000F01DF8052031
:1009D00000F00CF80448416821F0E06141F000713A
:1009E000416008BD0010024000000140002809DB02
:1009F00000F01F02012191404009800000F1E02039
:100A0000C0F8001170470000F0B40E4B1B680C4694
:100A1000C3F30223C3F10705042D00D90425191DD2
:100A2000072901D2002300E0DB1E012606FA05F1AA
:100A3000491E214099409E40761E16403143F0BC2D
:100A400000F00ABF0CED00E0064900F0070208685C
:100A50004FF6FF03184040EA0220034A10430860A3
:100A6000704700000CED00E00000FA052DE9F047AA
:100A70000F46050061D0434E306800F00700B842D1
:100A800009D2306820F0070038433060306800F049
:100A90000700B84251D128683B4C810712D5400766
:100AA00003D5606840F4E06060602878000703D5F3
:100AB000606840F4605060606068A96820F0F000F1
:100AC000084360602878C00728D06868012810D0E3
:100AD0002168022810D0890700292EDA616821F0E8
:100AE000030101436160FFF71BFF804641F2883933
:100AF0000DE021688903EFE78901EDE7FFF710FFBB
:100B0000A0EB0801494502D90320BDE8F0876068E1
:100B1000696800F00C00B0EB810FEFD1306800F095
:100B20000700B8420BD9306820F007003843306026
:100B3000306800F00700B84201D00120E5E72878CE
:100B4000400705D56068E96820F4E060084360600C
:100B50002878000706D56068296920F4605040EACB
:100B6000C100606000F038F86168084AC1F3031101
:100B7000515CC8400649086006480068FFF7F0FE6F
:100B80000020C2E700200240001002409419000833
:100B9000340000202C000020044805490068496802
:100BA000044AC1F30221515CC84070473400002060
:100BB00000100240A419000804480549006849686B
:100BC000044AC1F3C221515CC84070473400002080
:100BD00000100240A41900080E4A51680E4801F0A6
:100BE0000C03042B11D0082B0FD10C48C1F3834305
:100BF000C903C05C0AD55168084AC1F34041921E3E
:100C0000515C054A5043B0FBF1F07047044948433A
:100C1000704700000010024000127A00841900089A
:100C200000093D002DE9F84F040070D02078C04D38
:100C3000C00749D06868C0F38100012807D0686800
:100C4000C0F38100022809D16868C00306D528686E
:100C5000800339D560680028E7D035E06068B0F5DA
:100C6000803F0BD010B1B0F5A02F11D0286820F430
:100C700080302860286820F4802002E0286840F452
:100C800080302860606890B1FFF74AFE06460AE0AF
:100C9000286840F480202860F0E700BFFFF740FE9E
:100CA000801B642873D828688003F7D50CE0FFF711
:100CB00037FE064605E000BFFFF732FE801B6428C2
:100CC000F0D828688003F7D420789A4E80074FF038
:100CD00001094FF0000839D5686810F00C0F07D0F3
:100CE0006868C0F38100022809D16868C00306D48F
:100CF0002868800714D52069012808D110E02069F0
:100D0000B0B1C6F80090FFF70BFE074605E00AE118
:100D1000FFF706FEC01B0228C4D828688007F7D555
:100D20002868616920F0F80040EAC10028600DE001
:100D3000C6F80080FFF7F4FD074604E0FFF7F0FD7A
:100D4000C01B022823D828688007F7D42078000722
:100D50002CD57948A169D9B1C0F80090FFF7E0FD22
:100D6000074604E0FFF7DCFDC01B02280FD8686AC5
:100D70008007F7D571484FF4FA510068B0FBF1F0E5
:100D8000009000BF0098411E0091FAD20EE080E072
:100D9000C0F80080FFF7C4FD074604E0FFF7C0FD80
:100DA000C01B022875D8686A8007F7D420784007EE
:100DB00060D5E8690027C00008D4E86940F0805099
:100DC000E861E869012700F0805000905C48016804
:100DD000C90513D40168834641F480710160FFF7AF
:100DE0009FFD824606E000BFFFF79AFDA0EB0A00D8
:100DF00064284ED8DBF80000C005F5D5E06801286E
:100E00000AD008B1052813D0286A20F00100286212
:100E1000286A20F0040002E0286A40F001002862FD
:100E2000E06841F2883B98B1FFF77AFD82460BE01B
:100E3000286A40F004002862EEE700BFFFF770FD6B
:100E4000A0EB0A0159455AD8286A8007F6D50CE06C
:100E5000FFF766FD824605E0FFF762FDA0EB0A01A1
:100E600059454CD8286A8007F6D41FB1E86920F0AC
:100E70008050E861E06988B36968C1F381010229A3
:100E800044D00228C6F8608004D0FFF749FD04462C
:100E900038E034E0FFF744FD074604E0FFF740FD8B
:100EA000C01B02282BD828688001F7D4206AB0F52F
:100EB000803F05D16868A16820F40030084368606D
:100EC000D4E908010843696821F474110843686093
:100ED000C6F86090FFF724FD044606E025E000BF59
:100EE000FFF71EFD001B022809D828688001F7D5EE
:100EF0001BE000BFFFF714FD001B022802D90320EE
:100F0000BDE8F88F28688001F4D40EE00128F7D0FE
:100F10006868226A00F48031914204D1616A00F469
:100F20007010884201D00120EAE70020E8E70000C5
:100F3000001002400000424280044242340000207F
:100F40000070004010B5401EB0F1807F01D3012039
:100F500010BD4FF0E02460610F21601700F07CFCB1
:100F60000020A06107202061002010BD70B590F81E
:100F70003C20012A26D0012480F83C40022280F83F
:100F80003D2003685A689D6822F070060A68324363
:100F90005A600D4B02689A4208D0B2F1804F05D0DA
:100FA0000A4B9A4202D00A4B9A4204D1496825F072
:100FB00080031943916080F83D40002180F83C1087
:100FC000084670BD022070BD002C014000040040A6
:100FD0000008004010B5040003D094F83D0010B1A3
:100FE00007E0012010BD002084F83C00204600F0FE
:100FF0001FF8022084F83D00211D206800F092FABD
:10100000012084F8460084F83E0084F83F0084F80C
:10101000400084F8410084F8420084F8430084F8DA
:10102000440084F8450084F83D00002010BD000015
:1010300008B501680B48B1F1804F0BD00A4A9142C4
:1010400007D1C16941F00201C161C06900F002002D
:10105000009008BDC16941F00101C161C06900F0A3
:101060000100F5E7001002400004004070B504469E
:1010700090F83C000025012817D0012684F83C6038
:10108000022084F83D002068826822F0770222F472
:101090007F4282600868502838D00DDC20284FD06D
:1010A00005DC90B3102811D14AE0022070BD302831
:1010B00046D040280AD13BE060282FD070280DD0C0
:1010C000B0F5805F03D0B0F5005F12D0012584F841
:1010D0003D60002084F83C00284670BDCB68D1E913
:1010E0000121206800F054FA2068816841F07701FE
:1010F00009E0CB68D1E90121206800F049FA2068B5
:10110000816841F480418160E1E719E0CA6849687B
:10111000206800F04FFA5021206806E0CA6849684C
:10112000206800F058FA6021206800F03BFACEE712
:10113000CA684968206800F03DFA40212068F4E759
:10114000226801461046F0E770B5040004D094F818
:101150004100002510B106E0012070BD84F8405028
:10116000204600F023F8242084F841002068C1685C
:1011700021F40051C160204600F040FA2068016966
:1011800021F4904101612068416921F02A01416107
:101190002068C16841F40051C1606564202084F872
:1011A000410084F842006563002070BD30B585B011
:1011B0000024009401940294039400681449884226
:1011C00023D11448C16941F40031C161C16901F4FE
:1011D00000310491816941F00401816180690E4D03
:1011E00000F00400049004200090022001900320ED
:1011F000039069462846FFF791FA0820CDE90004DC
:10120000694628460294FFF789FA05B030BD000010
:101210000044004000100240000801402DE9F8435E
:10122000044690F841001F4616460D46202802D07D
:101230000220BDE8F8837DB176B1002060642120F2
:1012400084F84100FFF76CFBA6848046E684A06822
:10125000B0F5805F02D003E00120EAE7206910B119
:101260002E4600250EE000260CE08021204600F0EE
:1012700021FAA0B9AEB116F8010B21684860E08CE4
:10128000401EE084E08C43464FF0000200970028A7
:10129000EBD14FF04001204600F00CFA30B10320B2
:1012A000C7E735F8020BC0F30800E6E7202084F812
:1012B00041000020BDE7FEE72DE9F04385B00024A2
:1012C00039480094019402940394816941F010011B
:1012D0008161816901F010010491816941F020016F
:1012E0008161816901F020010491816941F004016B
:1012F0008161816901F004010491816941F0080173
:1013000081618069DFF8A48000F008004FF4507517
:101310000490002229464046FFF7FDFADFF890903E
:10132000002228214846FFF7F6FA224E1220CDE986
:101330000006694602944046FFF7F0F9009502273F
:1013400001250397CDE9015469464046FFF7E6F9C8
:101350000095CDE9016469464846FFF7DFF928208A
:10136000CDE90005CDE9024769464846FFF7D6F9C1
:10137000002211460620FFF747FB0620FFF736FB49
:10138000002211460720FFF73FFB0720FFF72EFB47
:10139000002211460A20FFF737FB0A20FFF726FB41
:1013A00005B0BDE8F08300000010024000080140D5
:1013B000000C01400000311010B586B00024164822
:1013C000009401940294039404944FF08041059496
:1013D000C0E900144FF6FF71C0E9024180210461A9
:1013E0008161FFF7F7FD08B1FFF72AF94FF480504C
:1013F000009069460848FFF739FE08B1FFF720F969
:10140000049404A904480594FFF7B0FD002801D016
:10141000FFF716F906B010BD3800002010B586B0F1
:1014200000241748009401940294039404941349EF
:101430000594C0E900144FF6FF71C0E90241802114
:1014400004618161FFF7C6FD08B1FFF7F9F84FF4B9
:101450008050009069460A48FFF708FE08B1FFF780
:10146000EFF8049404A906480594FFF77FFD0028CF
:1014700001D0FFF7E5F806B010BD00000004004001
:10148000800000200C4810B50A4901604FF4E1319A
:101490004160002181600822C160C0E904128161BD
:1014A000C161FFF751FE002803D0BDE81040FFF7EF
:1014B000C7B810BD00440040C8000020FEE7FEE7AA
:1014C000704770477047FFF731BA30B58FB02821A9
:1014D0006846FEF7B6FF14210AA8FEF7B2FF012006
:1014E000022504900095102005900024CDE90754B2
:1014F00068460994FFF796FB08B172B6FEE70F2025
:10150000CDE90A054FF48060CDE90C4000210AA81E
:101510000E94FFF7ABFA002801D072B6FEE70FB0C9
:1015200030BD7047F0B50268164B174C174D4FF0A1
:101530008047984205D0B84203D0A04201D0A842CB
:1015400003D122F070064A683243984205D0B8426F
:1015500003D0A04201D0A84203D122F44074CA684B
:1015600022434C6922F08002224302608A68C262F0
:101570000A688262984201D10969016301214161CF
:10158000F0BD0000002C01400004004000080040B5
:1015900010B5846842EA032224F47F440A432243BC
:1015A000826010BD826822F070020A4342F0070197
:1015B0008160704710B5036A046A24F00104046274
:1015C000846924F0F00444EA021423F00A020A4376
:1015D0008461026210BD10B5036A046A24F010042D
:1015E0000462846923F0A00324F4704444EA0232C4
:1015F00043EA01118261016210BD000070B504462A
:1016000000680169E26821F44051114301612169D8
:10161000A0680843616908432168CA6841F20C6305
:101620009A430243CA6020684169A26921F440716B
:10163000114341611E492068884202D1FFF7BCFA7C
:1016400001E0FFF7A9FA00EBC00101EB00126068AE
:1016500064218000B2FBF0F3B3FBF1F36FF01806E6
:101660007343B2FBF0F5B2FBF0F605EB83053223D2
:1016700003EB0515B5FBF1F5B6FBF1F605F0F0054A
:1016800005EB0615B2FBF0F6B2FBF0F0B0FBF1F0A3
:101690006FF01802504306EB800003EB0010B0FB24
:1016A000F1F0216800F00F002844886070BD000050
:1016B000003801402DE9F041984617460E46044691
:1016C000069D27E0681C25D02DB1FFF729F9A0EB76
:1016D0000800A8421ED920680C3050E8001F21F4F1
:1016E000D07140E80012002AF5D12068143050E88B
:1016F000001F21F0010140E80012002AF5D120204E
:1017000084F8410084F84200002084F8400003205F
:10171000BDE8F0812068006836EA000004D00020AF
:10172000B842CFD00020F3E70120F9E7FEE7000040
:101730002DE9F0410D4E002405464FF40078B71511
:1017400005F0010241463046FFF7E5F86D08012239
:1017500039463046FFF7DFF8002239463046FFF7BA
:10176000DAF8641C082CEBDBBDE8F08100080140CE
:1017700070B50D460446FEF747FF2046FFF7D8FF39
:101780002846FFF7D5FFBDE87040FEF751BF0000C7
:101790002DE9F0410A4F002405460A26A7F1040866
:1017A000B5FBF6F006FB105018F80410385CFFF794
:1017B000DFFFB5FBF6F5641C042CF1DBBDE8F0811E
:1017C000781900080548002181610268521E0260F4
:1017D0000268002A00DA0160704700000000002063
:1017E000074A00B5002090611068401C1060106826
:1017F000FE2803DD00F028F80120906100BD000004
:101800000000002070B50F4C054608212046FFF768
:101810007AF82846FFF7BCFF2846FEF713FF284654
:10182000FFF7B6FF08212046FFF76DF82846FFF7BF
:10183000AFFF0220FEF706FF2846BDE87040FFF725
:10184000A7BF0000000C0140024800218161016037
:1018500070470000000000200907090E002804DB83
:1018600000F1E02080F80014704700F00F0000F154
:10187000E02080F8141D704730380A2801D201207A
:101880007047002070470000C0B0FFF757F8FFF71F
:101890001CFEFFF711FDFFF7C1FDFFF78DFDFFF700
:1018A000F1FDDFF8BCA02F4C4FF4807840F6B8353E
:1018B00001264FF47A774FF0FF3900BFFFF730F879
:1018C0000346606850B1A068181AA84206DDE660B9
:1018D000A06800F6B830A060FFF774FFE06848B178
:1018E000A068181AB84205DDA06800F57A70A060FB
:1018F000FFF768FFE06950B1206A181AA84206DDB8
:101900006662206A00F6B8302062FFF769FF606AFD
:1019100048B1206A181AB84205DD206A00F57A70CD
:101920002062FFF75DFFA06908B1002200E00122FC
:1019300040215046FEF7EFFF23680BA24146684660
:10194000FEF746FC6846FEF75DFD82B24B466946EF
:101950000748FFF763FC2068FFF754FFAEE700007D
:101960000008014000000020583D253034640A0082
:10197000C800002010204080039F250D9949411F79
:101980000109010202030405060708090A0B0C0DF0
:101990000E0F101000000000000000000102030400
:1019A0000607080900000000010203040400000803
:1019B0000000000000000002000100001000000014
:1019C000E01900080000002038000000280100088D
:1019D000181A0008380000203807000044010008E9
:1019E00000000000000000000000000000000000F7
:1019F00000000000000000000000000000000000E7
:101A000000000000000000000100000010000000C5
:081A1000000000000024F400B6
:04000005080000ED02
:00000001FF
