:020000040800F2
:10000000C006002089010008AB0C0008C50B0008E1
:10001000A90C00088F020008CD0D000800000000A8
:10002000000000000000000000000000AF0C00080D
:100030009102000800000000AD0C0008B10C00089F
:10004000A3010008A3010008A3010008A301000800
:10005000A3010008A3010008A3010008A3010008F0
:10006000A3010008A3010008A3010008A3010008E0
:10007000A3010008A3010008A3010008A3010008D0
:10008000A3010008A3010008A3010008A3010008C0
:10009000A3010008A3010008A3010008A3010008B0
:1000A000A3010008A3010008A3010008A3010008A0
:1000B000A3010008A3010008A3010008A301000890
:1000C000A3010008A3010008A3010008A301000880
:1000D000A3010008A3010008A3010008A301000870
:1000E00095020008A3010008A301000800F002F82F
:1000F00000F03AF80AA090E8000C82448344AAF188
:100100000107DA4501D100F02FF8AFF2090EBAE885
:100110000F0013F0010F18BFFB1A43F0010318473B
:10012000740D0000940D0000103A24BF78C878C107
:10013000FAD8520724BF30C830C144BF04680C60ED
:10014000704700000023002400250026103A28BF35
:1001500078C1FBD8520728BF30C148BF0B60704739
:100160001FB51FBD10B510BD00F058F81146FFF7C0
:10017000F7FF00F03DFE00F076F803B4FFF7F2FF62
:1001800003BC00F07DF8000009488047094800479B
:10019000FEE7FEE7FEE7FEE7FEE7FEE7FEE7FEE737
:1001A000FEE7FEE704480549054A064B7047000094
:1001B000110D0008ED000008C0000020C00600205E
:1001C000C0020020C00200204FF0000200B513461C
:1001D00094469646203922BFA0E80C50A0E80C5067
:1001E000B1F12001BFF4F7AF090728BFA0E80C5018
:1001F00048BF0CC05DF804EB890028BF40F8042B11
:1002000008BF704748BF20F8022B11F0804F18BF7D
:1002100000F8012B7047704770477047754600F033
:100220002BF8AE4605006946534620F00700854688
:1002300018B020B5FFF7B6FFBDE820404FF000062C
:100240004FF000074FF000084FF0000B21F00701BE
:10025000AC46ACE8C009ACE8C009ACE8C009ACE801
:10026000C0098D46704710B50446AFF300802046A4
:10027000BDE81040FFF781BF004870475C000020D8
:1002800001491820ABBEFEE7260002007047FEE7DA
:100290007047000005480068800402D50449012029
:1002A00008604FF4005000F009B800001404014049
:1002B0000000002072B6FEE770470000044910B548
:1002C0000A68024202D00860FFF7F6FF10BD000086
:1002D000140401402DE9F84FDFF8B8910024A9F18A
:1002E000040B23460F2709F1040AABF1040EC9E001
:1002F0000125A5402A40AA427DD1674ED1F804C00D
:10030000ACEB0608B44532D014DCBCF1030F3AD094
:1003100009DCBCF1000F2AD0BCF1010F1CD0BCF1EC
:10032000020F31D11DE0BCF1110F17D0BCF1120F3B
:100330002AD119E0B8F5881F19D006DCB8F5803F3E
:1003400015D0B8F5801F1FD111E0B8F5001F0ED0F1
:10035000B8F5041F18D10AE0CB6815E0CB681B1D67
:1003600012E0CB6808330FE0CB680C330CE08B68ED
:100370002BB1012B4FF0080303D0456104E00423A7
:1003800002E0056100E00023FF2A01D8064601E0F3
:1003900000F104064FEA840501D9A5F12005D6F83D
:1003A000008007FA05FC28EA0C0803FA05F548EA7C
:1003B0000508C6F800804D68ED0062D5374DAE697E
:1003C00046F00106AE61AD6924F0030605F00105B3
:1003D0000095334D06EB050CDCF80850A607360FE8
:1003E00007FA06F825EA0805DFF8B880404503D18A
:1003F0004FF0000817E044E0DFF8AC80404502D140
:100400004FF001080FE0DFF8A480404502D14FF023
:10041000020808E0DFF89880404502D14FF0030859
:1004200001E04FF0040808FA06F848EA0508CCF89D
:1004300008804D68D9F80060ED024D4601D516439D
:1004400000E096432E604D68DAF80060AD02554634
:1004500001D5164300E096432E604D68DBF800603E
:10046000AD035D4601D5164300E096432E604D680E
:10047000DEF80060ED03754601D5164300E09643B3
:100480002E60641C0D682A46E5407FF431AFBDE85C
:10049000F88F000008040140000011100010024015
:1004A0000000014000080140000C01400010014024
:1004B000001401408068084000D0012070470AB154
:1004C000016170470904FBE701488068704700003C
:1004D000040000200248816802781144816070475E
:1004E00004000020074810B5016841F010010160C8
:1004F000032000F075F8002000F006F800F024F862
:10050000002010BD0020024070B50D4D04464FF490
:100510007A712878B1FBF0F00A490968B1FBF0F074
:1005200000F0DCFA48B9102C07D200222146501EF8
:1005300000F036F800206C6070BD012070BD000036
:1005400004000020100000200C4808B5816941F02B
:1005500001018161816901F001010091C16941F0EE
:100560008051C161C06900F080500090044841682A
:1005700021F0E06141F00071416008BD00100240CF
:1005800000000140002809DB00F01F02012191401A
:100590004009800000F1E020C0F800117047000021
:1005A000F0B40E4B1B680C46C3F30223C3F10705DE
:1005B000042D00D90425191D072901D2002300E0CC
:1005C000DB1E012606FA05F1491E214099409E4096
:1005D000761E16403143F0BC00F0F9BB0CED00E094
:1005E000064900F0070208684FF6FF03184040EA8A
:1005F0000220034A10430860704700000CED00E041
:100600000000FA052DE9F0470F46050061D0434E82
:10061000306800F00700B84209D2306820F00700C7
:1006200038433060306800F00700B84251D1286884
:100630003B4C810712D5400703D5606840F4E06069
:1006400060602878000703D5606840F460506060FF
:100650006068A96820F0F000084360602878C0074F
:1006600028D06868012810D02168022810D0890796
:1006700000292EDA616821F0030101436160FFF770
:1006800023FF804641F288390DE021688903EFE7B6
:100690008901EDE7FFF718FFA0EB0801494502D9F2
:1006A0000320BDE8F0876068696800F00C00B0EBDB
:1006B000810FEFD1306800F00700B8420BD93068E5
:1006C00020F0070038433060306800F00700B8427F
:1006D00001D00120E5E72878400705D56068E96882
:1006E00020F4E060084360602878000706D5606861
:1006F000296920F4605040EAC100606000F038F8D9
:100700006168084AC1F30311515CC840064908609A
:1007100006480068FFF7F8FE0020C2E7002002400C
:10072000001002407A0E000810000020080000208F
:100730000448054900684968044AC1F30221515C34
:10074000C840704710000020001002408A0E0008C8
:100750000448054900684968044AC1F3C221515C54
:10076000C840704710000020001002408A0E0008A8
:100770000E4A51680E4801F00C03042B11D0082BCF
:100780000FD10C48C1F38343C903C05C0AD551683B
:10079000084AC1F34041921E515C054A5043B0FBE8
:1007A000F1F07047044948437047000000100240D0
:1007B00000127A006A0E000800093D002DE9F84F8A
:1007C000040070D02078C04DC00749D06868C0F3DD
:1007D0008100012807D06868C0F38100022809D190
:1007E0006868C00306D52868800339D5606800288A
:1007F000E7D035E06068B0F5803F0BD010B1B0F5C0
:10080000A02F11D0286820F480302860286820F4B8
:10081000802002E0286840F480302860606890B151
:10082000FFF752FE06460AE0286840F48020286060
:10083000F0E700BFFFF748FE801B642873D82868E4
:100840008003F7D50CE0FFF73FFE064605E000BF4A
:10085000FFF73AFE801B6428F0D828688003F7D49D
:1008600020789A4E80074FF001094FF0000839D5E3
:10087000686810F00C0F07D06868C0F38100022888
:1008800009D16868C00306D42868800714D5206998
:10089000012808D110E02069B0B1C6F80090FFF738
:1008A00013FE074605E00AE1FFF70EFEC01B022813
:1008B000C4D828688007F7D52868616920F0F80057
:1008C00040EAC10028600DE0C6F80080FFF7FCFD9B
:1008D000074604E0FFF7F8FDC01B022823D828686C
:1008E0008007F7D4207800072CD57948A169D9B1C1
:1008F000C0F80090FFF7E8FD074604E0FFF7E4FDCD
:10090000C01B02280FD8686A8007F7D571484FF4DA
:10091000FA510068B0FBF1F0009000BF0098411E52
:100920000091FAD20EE080E0C0F80080FFF7CCFD25
:10093000074604E0FFF7C8FDC01B022875D8686AA7
:100940008007F7D42078400760D5E8690027C00009
:1009500008D4E86940F08050E861E869012700F0B8
:10096000805000905C480168C90513D40168834633
:1009700041F480710160FFF7A7FD824606E000BFE9
:10098000FFF7A2FDA0EB0A0064284ED8DBF80000B8
:10099000C005F5D5E06801280AD008B1052813D0B4
:1009A000286A20F001002862286A20F0040002E092
:1009B000286A40F001002862E06841F2883B98B163
:1009C000FFF782FD82460BE0286A40F004002862AF
:1009D000EEE700BFFFF778FDA0EB0A0159455AD8B2
:1009E000286A8007F6D50CE0FFF76EFD824605E029
:1009F000FFF76AFDA0EB0A0159454CD8286A800729
:100A0000F6D41FB1E86920F08050E861E06988B34E
:100A10006968C1F38101022944D00228C6F86080C8
:100A200004D0FFF751FD044638E034E0FFF74CFDF9
:100A3000074604E0FFF748FDC01B02282BD82868B2
:100A40008001F7D4206AB0F5803F05D16868A168BD
:100A500020F4003008436860D4E90801084369685D
:100A600021F4741108436860C6F86090FFF72CFD0C
:100A7000044606E025E000BFFFF726FD001B022824
:100A800009D828688001F7D51BE000BFFFF71CFDDF
:100A9000001B022802D90320BDE8F88F28688001D6
:100AA000F4D40EE00128F7D06868226A00F480319F
:100AB000914204D1616A00F47010884201D0012093
:100AC000EAE70020E8E70000001002400000424290
:100AD00080044242100000200070004010B5401E0B
:100AE000B0F1807F01D3012010BD4FF0E0246061A0
:100AF0000F21601700F06BF90020A0610720206132
:100B0000002010BD70B5040004D094F84100002509
:100B100010B106E0012070BD84F84050204600F07E
:100B200023F8242084F841002068C16821F4005192
:100B3000C160204600F0EEF82068016921F4904180
:100B400001612068416921F02A0141612068C16882
:100B500041F40051C1606564202084F8410084F8AC
:100B600042006563002070BD00B585B00021009192
:100B700001910291039100680F49884219D10F48F1
:100B8000C16941F40031C161C16901F400310491CE
:100B9000816941F0040181618069694600F00400C7
:100BA00004900C2000900220019003900448FFF76D
:100BB00091FB05B000BD0000004400400010024061
:100BC00000080140FEE7000030B585B0002424484D
:100BD0000094019402940394816941F010018161B1
:100BE000816901F010010491816941F02001816166
:100BF000816901F020010491816941F00401816162
:100C0000816901F004010491816941F00801816169
:100C10008069144D00F0080004900022202128462D
:100C2000FFF74DFC681400900F48CDE901046946B8
:100C30000E48FFF74FFB202000900120CDE9010472
:100C40000220039069462846FFF744FB0022114624
:100C50002820FFF7A5FC2820FFF794FC05B030BD45
:100C60000010024000080140000011100010014077
:100C70000C4810B50A4901604FF4E1314160002190
:100C800081600C22C160C0E904128161C161FFF77B
:100C900039FF002803D0BDE81040FFF70BBB10BDA3
:100CA0000044004014000020FEE7FEE77047704754
:100CB000FFF710BC30B58FB028216846FFF784FAE3
:100CC00014210AA8FFF780FA02250120049000955C
:100CD0001020059000244FF46010CDE908400795DE
:100CE0006846FFF76BFD08B172B6FEE70F20CDE94D
:100CF0000A054FF48060CDE90C4002210AA80E9449
:100D0000FFF780FC002801D072B6FEE70FB030BDBF
:100D10007047000070B5044600680169E26821F47C
:100D20004051114301612169A0680843616908438A
:100D30002168CA6841F20C639A430243CA60206882
:100D40004169A26921F44071114341611E49206843
:100D5000884202D1FFF7FCFC01E0FFF7E9FC00EB61
:100D6000C00101EB0012606864218000B2FBF0F367
:100D7000B3FBF1F36FF018067343B2FBF0F5B2FB6F
:100D8000F0F605EB8305322303EB0515B5FBF1F512
:100D9000B6FBF1F605F0F00505EB0615B2FBF0F633
:100DA000B2FBF0F0B0FBF1F06FF01802504306EB2D
:100DB000800003EB0010B0FBF1F0216800F00F00A1
:100DC0002844886070BD000000380140FEE7090734
:100DD000090E002804DB00F1E02080F800147047C1
:100DE00000F00F0000F1E02080F8141D70470000B3
:100DF000FFF778FBFFF75EFFFFF7E6FEFFF738FF30
:100E00000020FFF781FB154C00202060DFF850B078
:100E1000DFF850A005464FF40059012680464FF4F4
:100E2000FA6749465846FFF745FB0028206810D06E
:100E300020B1FFF749FB0546C4F80080FFF744FBEB
:100E4000401BB842EDD9002220215046FFF737FB66
:100E5000E7E70028E5D126600122F5E70000002041
:100E600000100140000801400102020304050607CA
:100E700008090A0B0C0D0E0F1010000000000000F6
:100E80000000010203040607080900000000010237
:100E900003040000B40E000800000020140000004D
:100EA00028010008C80E000814000020AC0600004D
:100EB00044010008000000000100000010000000D4
:080EC000000000000024F40012
:04000005080000ED02
:00000001FF
